{
  "contractName": "Dex",
  "abi": [
    {
      "inputs": [],
      "stateMutability": "nonpayable",
      "type": "constructor"
    },
    {
      "anonymous": false,
      "inputs": [
        {
          "indexed": false,
          "internalType": "uint256",
          "name": "tradeId",
          "type": "uint256"
        },
        {
          "indexed": false,
          "internalType": "uint256",
          "name": "orderId",
          "type": "uint256"
        },
        {
          "indexed": true,
          "internalType": "bytes32",
          "name": "ticker",
          "type": "bytes32"
        },
        {
          "indexed": true,
          "internalType": "address",
          "name": "trader1",
          "type": "address"
        },
        {
          "indexed": true,
          "internalType": "address",
          "name": "trader2",
          "type": "address"
        },
        {
          "indexed": false,
          "internalType": "uint256",
          "name": "amount",
          "type": "uint256"
        },
        {
          "indexed": false,
          "internalType": "uint256",
          "name": "price",
          "type": "uint256"
        },
        {
          "indexed": false,
          "internalType": "uint256",
          "name": "date",
          "type": "uint256"
        }
      ],
      "name": "newTrade",
      "type": "event"
    },
    {
      "inputs": [],
      "name": "admin",
      "outputs": [
        {
          "internalType": "address",
          "name": "",
          "type": "address"
        }
      ],
      "stateMutability": "view",
      "type": "function",
      "constant": true
    },
    {
      "inputs": [],
      "name": "nextOrderId",
      "outputs": [
        {
          "internalType": "uint256",
          "name": "",
          "type": "uint256"
        }
      ],
      "stateMutability": "view",
      "type": "function",
      "constant": true
    },
    {
      "inputs": [],
      "name": "nextTokenId",
      "outputs": [
        {
          "internalType": "uint256",
          "name": "",
          "type": "uint256"
        }
      ],
      "stateMutability": "view",
      "type": "function",
      "constant": true
    },
    {
      "inputs": [],
      "name": "nextTradeId",
      "outputs": [
        {
          "internalType": "uint256",
          "name": "",
          "type": "uint256"
        }
      ],
      "stateMutability": "view",
      "type": "function",
      "constant": true
    },
    {
      "inputs": [
        {
          "internalType": "bytes32",
          "name": "",
          "type": "bytes32"
        },
        {
          "internalType": "uint256",
          "name": "",
          "type": "uint256"
        },
        {
          "internalType": "uint256",
          "name": "",
          "type": "uint256"
        }
      ],
      "name": "orderBook",
      "outputs": [
        {
          "internalType": "uint256",
          "name": "id",
          "type": "uint256"
        },
        {
          "internalType": "address",
          "name": "trader",
          "type": "address"
        },
        {
          "internalType": "enum Dex.Side",
          "name": "side",
          "type": "uint8"
        },
        {
          "internalType": "bytes32",
          "name": "ticker",
          "type": "bytes32"
        },
        {
          "internalType": "uint256",
          "name": "amount",
          "type": "uint256"
        },
        {
          "internalType": "uint256",
          "name": "filled",
          "type": "uint256"
        },
        {
          "internalType": "uint256",
          "name": "price",
          "type": "uint256"
        },
        {
          "internalType": "uint256",
          "name": "date",
          "type": "uint256"
        }
      ],
      "stateMutability": "view",
      "type": "function",
      "constant": true
    },
    {
      "inputs": [
        {
          "internalType": "uint256",
          "name": "",
          "type": "uint256"
        }
      ],
      "name": "tokenList",
      "outputs": [
        {
          "internalType": "bytes32",
          "name": "",
          "type": "bytes32"
        }
      ],
      "stateMutability": "view",
      "type": "function",
      "constant": true
    },
    {
      "inputs": [
        {
          "internalType": "bytes32",
          "name": "",
          "type": "bytes32"
        }
      ],
      "name": "tokens",
      "outputs": [
        {
          "internalType": "uint256",
          "name": "id",
          "type": "uint256"
        },
        {
          "internalType": "bytes32",
          "name": "ticker",
          "type": "bytes32"
        },
        {
          "internalType": "address",
          "name": "tokenAddress",
          "type": "address"
        }
      ],
      "stateMutability": "view",
      "type": "function",
      "constant": true
    },
    {
      "inputs": [
        {
          "internalType": "address",
          "name": "",
          "type": "address"
        },
        {
          "internalType": "bytes32",
          "name": "",
          "type": "bytes32"
        }
      ],
      "name": "traderBalances",
      "outputs": [
        {
          "internalType": "uint256",
          "name": "",
          "type": "uint256"
        }
      ],
      "stateMutability": "view",
      "type": "function",
      "constant": true
    },
    {
      "inputs": [
        {
          "internalType": "bytes32",
          "name": "ticker",
          "type": "bytes32"
        },
        {
          "internalType": "enum Dex.Side",
          "name": "side",
          "type": "uint8"
        }
      ],
      "name": "getOrders",
      "outputs": [
        {
          "components": [
            {
              "internalType": "uint256",
              "name": "id",
              "type": "uint256"
            },
            {
              "internalType": "address",
              "name": "trader",
              "type": "address"
            },
            {
              "internalType": "enum Dex.Side",
              "name": "side",
              "type": "uint8"
            },
            {
              "internalType": "bytes32",
              "name": "ticker",
              "type": "bytes32"
            },
            {
              "internalType": "uint256",
              "name": "amount",
              "type": "uint256"
            },
            {
              "internalType": "uint256",
              "name": "filled",
              "type": "uint256"
            },
            {
              "internalType": "uint256",
              "name": "price",
              "type": "uint256"
            },
            {
              "internalType": "uint256",
              "name": "date",
              "type": "uint256"
            }
          ],
          "internalType": "struct Dex.Order[]",
          "name": "",
          "type": "tuple[]"
        }
      ],
      "stateMutability": "view",
      "type": "function",
      "constant": true
    },
    {
      "inputs": [],
      "name": "getTokens",
      "outputs": [
        {
          "components": [
            {
              "internalType": "uint256",
              "name": "id",
              "type": "uint256"
            },
            {
              "internalType": "bytes32",
              "name": "ticker",
              "type": "bytes32"
            },
            {
              "internalType": "address",
              "name": "tokenAddress",
              "type": "address"
            }
          ],
          "internalType": "struct Dex.Token[]",
          "name": "",
          "type": "tuple[]"
        }
      ],
      "stateMutability": "view",
      "type": "function",
      "constant": true
    },
    {
      "inputs": [
        {
          "internalType": "bytes32",
          "name": "ticker",
          "type": "bytes32"
        },
        {
          "internalType": "address",
          "name": "tokenAddress",
          "type": "address"
        }
      ],
      "name": "addToken",
      "outputs": [],
      "stateMutability": "nonpayable",
      "type": "function"
    },
    {
      "inputs": [
        {
          "internalType": "uint256",
          "name": "amount",
          "type": "uint256"
        },
        {
          "internalType": "bytes32",
          "name": "ticker",
          "type": "bytes32"
        }
      ],
      "name": "deposit",
      "outputs": [],
      "stateMutability": "nonpayable",
      "type": "function"
    },
    {
      "inputs": [
        {
          "internalType": "uint256",
          "name": "amount",
          "type": "uint256"
        },
        {
          "internalType": "bytes32",
          "name": "ticker",
          "type": "bytes32"
        }
      ],
      "name": "withdraw",
      "outputs": [],
      "stateMutability": "nonpayable",
      "type": "function"
    },
    {
      "inputs": [
        {
          "internalType": "bytes32",
          "name": "ticker",
          "type": "bytes32"
        },
        {
          "internalType": "uint256",
          "name": "amount",
          "type": "uint256"
        },
        {
          "internalType": "uint256",
          "name": "price",
          "type": "uint256"
        },
        {
          "internalType": "enum Dex.Side",
          "name": "side",
          "type": "uint8"
        }
      ],
      "name": "createLimitOrder",
      "outputs": [],
      "stateMutability": "nonpayable",
      "type": "function"
    },
    {
      "inputs": [
        {
          "internalType": "bytes32",
          "name": "ticker",
          "type": "bytes32"
        },
        {
          "internalType": "uint256",
          "name": "amount",
          "type": "uint256"
        },
        {
          "internalType": "enum Dex.Side",
          "name": "side",
          "type": "uint8"
        }
      ],
      "name": "createMarketOrder",
      "outputs": [],
      "stateMutability": "nonpayable",
      "type": "function"
    }
  ],
  "bytecode": "0x608060405234801561001057600080fd5b5033600260006101000a81548173ffffffffffffffffffffffffffffffffffffffff021916908373ffffffffffffffffffffffffffffffffffffffff160217905550613e8d806100616000396000f3fe608060405234801561001057600080fd5b50600436106100f55760003560e01c8063904194a311610097578063aa6ca80811610066578063aa6ca808146102a1578063c9630cb0146102bf578063d9c0c950146102db578063f851a440146102f7576100f5565b8063904194a3146102075780639776aacf146102395780639ead722214610255578063a8d2021a14610285576100f5565b806372ce957e116100d357806372ce957e1461017f57806375794a3c146101af5780637f2c6246146101cd578063813ad083146101e9576100f5565b80630bb431b6146100fa5780632a58b3301461013157806346e9658b1461014f575b600080fd5b610114600480360381019061010f91906133b5565b610315565b604051610128989796959493929190613a4a565b60405180910390f35b6101396103b4565b6040516101469190613a2f565b60405180910390f35b6101696004803603810190610164919061332a565b6103ba565b6040516101769190613910565b60405180910390f35b61019960048036038101906101949190613260565b610590565b6040516101a69190613a2f565b60405180910390f35b6101b76105b5565b6040516101c49190613a2f565b60405180910390f35b6101e760048036038101906101e29190613366565b6105bb565b005b6101f1611c62565b6040516101fe9190613a2f565b60405180910390f35b610221600480360381019061021c91906132c5565b611c68565b60405161023093929190613ac8565b60405180910390f35b610253600480360381019061024e91906132ee565b611cb2565b005b61026f600480360381019061026a9190613467565b611e2a565b60405161027c9190613954565b60405180910390f35b61029f600480360381019061029a9190613490565b611e4e565b005b6102a9612106565b6040516102b69190613932565b60405180910390f35b6102d960048036038101906102d49190613490565b612356565b005b6102f560048036038101906102f09190613404565b61257d565b005b6102ff613155565b60405161030c9190613895565b60405180910390f35b6004602052826000526040600020602052816000526040600020818154811061033d57600080fd5b906000526020600020906007020160009250925050508060000154908060010160009054906101000a900473ffffffffffffffffffffffffffffffffffffffff16908060010160149054906101000a900460ff16908060020154908060030154908060040154908060050154908060060154905088565b60055481565b606060046000848152602001908152602001600020600083600181111561040a577f4e487b7100000000000000000000000000000000000000000000000000000000600052602160045260246000fd5b8152602001908152602001600020805480602002602001604051908101604052809291908181526020016000905b82821015610584578382906000526020600020906007020160405180610100016040529081600082015481526020016001820160009054906101000a900473ffffffffffffffffffffffffffffffffffffffff1673ffffffffffffffffffffffffffffffffffffffff1673ffffffffffffffffffffffffffffffffffffffff1681526020016001820160149054906101000a900460ff166001811115610507577f4e487b7100000000000000000000000000000000000000000000000000000000600052602160045260246000fd5b600181111561053f577f4e487b7100000000000000000000000000000000000000000000000000000000600052602160045260246000fd5b81526020016002820154815260200160038201548152602001600482015481526020016005820154815260200160068201548152505081526020019060010190610438565b50505050905092915050565b6003602052816000526040600020602052806000526040600020600091509150505481565b60075481565b82600073ffffffffffffffffffffffffffffffffffffffff1660008083815260200190815260200160002060020160009054906101000a900473ffffffffffffffffffffffffffffffffffffffff1673ffffffffffffffffffffffffffffffffffffffff161415610661576040517f08c379a000000000000000000000000000000000000000000000000000000000815260040161065890613a0f565b60405180910390fd5b837f44414900000000000000000000000000000000000000000000000000000000008114156106c5576040517f08c379a00000000000000000000000000000000000000000000000000000000081526004016106bc9061398f565b60405180910390fd5b6001808111156106fe577f4e487b7100000000000000000000000000000000000000000000000000000000600052602160045260246000fd5b836001811115610737577f4e487b7100000000000000000000000000000000000000000000000000000000600052602160045260246000fd5b14156107d15783600360003373ffffffffffffffffffffffffffffffffffffffff1673ffffffffffffffffffffffffffffffffffffffff16815260200190815260200160002060008781526020019081526020016000205410156107d0576040517f08c379a00000000000000000000000000000000000000000000000000000000081526004016107c7906139ef565b60405180910390fd5b5b6000600460008781526020019081526020016000206000806001811115610821577f4e487b7100000000000000000000000000000000000000000000000000000000600052602160045260246000fd5b86600181111561085a577f4e487b7100000000000000000000000000000000000000000000000000000000600052602160045260246000fd5b14610866576000610869565b60015b60018111156108a1577f4e487b7100000000000000000000000000000000000000000000000000000000600052602160045260246000fd5b815260200190815260200160002090506000808690505b8280549050821080156108cb5750600081115b156118fe57600061097984848154811061090e577f4e487b7100000000000000000000000000000000000000000000000000000000600052603260045260246000fd5b906000526020600020906007020160040154858581548110610959577f4e487b7100000000000000000000000000000000000000000000000000000000600052603260045260246000fd5b90600052602060002090600702016003015461317b90919063ffffffff16565b9050600081831161098a578261098c565b815b90506109a1818461317b90919063ffffffff16565b9250610a00818686815481106109e0577f4e487b7100000000000000000000000000000000000000000000000000000000600052603260045260246000fd5b90600052602060002090600702016004015461319190919063ffffffff16565b858581548110610a39577f4e487b7100000000000000000000000000000000000000000000000000000000600052603260045260246000fd5b9060005260206000209060070201600401819055503373ffffffffffffffffffffffffffffffffffffffff16858581548110610a9e577f4e487b7100000000000000000000000000000000000000000000000000000000600052603260045260246000fd5b906000526020600020906007020160010160009054906101000a900473ffffffffffffffffffffffffffffffffffffffff1673ffffffffffffffffffffffffffffffffffffffff168b7ffc9e03b5c8db1d38fcbbef7db5d52adb19b17e683970fa3b5e4320e0c5e924e2600654898981548110610b44577f4e487b7100000000000000000000000000000000000000000000000000000000600052603260045260246000fd5b906000526020600020906007020160000154868b8b81548110610b90577f4e487b7100000000000000000000000000000000000000000000000000000000600052603260045260246000fd5b90600052602060002090600702016005015442604051610bb4959493929190613aff565b60405180910390a4600180811115610bf5577f4e487b7100000000000000000000000000000000000000000000000000000000600052602160045260246000fd5b886001811115610c2e577f4e487b7100000000000000000000000000000000000000000000000000000000600052602160045260246000fd5b141561118757610c9781600360003373ffffffffffffffffffffffffffffffffffffffff1673ffffffffffffffffffffffffffffffffffffffff16815260200190815260200160002060008d81526020019081526020016000205461317b90919063ffffffff16565b600360003373ffffffffffffffffffffffffffffffffffffffff1673ffffffffffffffffffffffffffffffffffffffff16815260200190815260200160002060008c815260200190815260200160002081905550610dca610d4b868681548110610d2a577f4e487b7100000000000000000000000000000000000000000000000000000000600052603260045260246000fd5b906000526020600020906007020160050154836131a790919063ffffffff16565b600360003373ffffffffffffffffffffffffffffffffffffffff1673ffffffffffffffffffffffffffffffffffffffff16815260200190815260200160002060007f444149000000000000000000000000000000000000000000000000000000000081526020019081526020016000205461319190919063ffffffff16565b600360003373ffffffffffffffffffffffffffffffffffffffff1673ffffffffffffffffffffffffffffffffffffffff16815260200190815260200160002060007f4441490000000000000000000000000000000000000000000000000000000000815260200190815260200160002081905550610f87610e9e868681548110610e7d577f4e487b7100000000000000000000000000000000000000000000000000000000600052603260045260246000fd5b906000526020600020906007020160050154836131a790919063ffffffff16565b60036000888881548110610edb577f4e487b7100000000000000000000000000000000000000000000000000000000600052603260045260246000fd5b906000526020600020906007020160010160009054906101000a900473ffffffffffffffffffffffffffffffffffffffff1673ffffffffffffffffffffffffffffffffffffffff1673ffffffffffffffffffffffffffffffffffffffff16815260200190815260200160002060007f444149000000000000000000000000000000000000000000000000000000000081526020019081526020016000205461317b90919063ffffffff16565b60036000878781548110610fc4577f4e487b7100000000000000000000000000000000000000000000000000000000600052603260045260246000fd5b906000526020600020906007020160010160009054906101000a900473ffffffffffffffffffffffffffffffffffffffff1673ffffffffffffffffffffffffffffffffffffffff1673ffffffffffffffffffffffffffffffffffffffff16815260200190815260200160002060007f44414900000000000000000000000000000000000000000000000000000000008152602001908152602001600020819055506110c881600360003373ffffffffffffffffffffffffffffffffffffffff1673ffffffffffffffffffffffffffffffffffffffff16815260200190815260200160002060008d81526020019081526020016000205461319190919063ffffffff16565b60036000878781548110611105577f4e487b7100000000000000000000000000000000000000000000000000000000600052603260045260246000fd5b906000526020600020906007020160010160009054906101000a900473ffffffffffffffffffffffffffffffffffffffff1673ffffffffffffffffffffffffffffffffffffffff1673ffffffffffffffffffffffffffffffffffffffff16815260200190815260200160002060008c8152602001908152602001600020819055505b600060018111156111c1577f4e487b7100000000000000000000000000000000000000000000000000000000600052602160045260246000fd5b8860018111156111fa577f4e487b7100000000000000000000000000000000000000000000000000000000600052602160045260246000fd5b14156118c557848481548110611239577f4e487b7100000000000000000000000000000000000000000000000000000000600052603260045260246000fd5b906000526020600020906007020160050154816112569190613c2b565b600360003373ffffffffffffffffffffffffffffffffffffffff1673ffffffffffffffffffffffffffffffffffffffff16815260200190815260200160002060007f44414900000000000000000000000000000000000000000000000000000000008152602001908152602001600020541015611308576040517f08c379a00000000000000000000000000000000000000000000000000000000081526004016112ff906139af565b60405180910390fd5b61136b81600360003373ffffffffffffffffffffffffffffffffffffffff1673ffffffffffffffffffffffffffffffffffffffff16815260200190815260200160002060008d81526020019081526020016000205461319190919063ffffffff16565b600360003373ffffffffffffffffffffffffffffffffffffffff1673ffffffffffffffffffffffffffffffffffffffff16815260200190815260200160002060008c81526020019081526020016000208190555061149e61141f8686815481106113fe577f4e487b7100000000000000000000000000000000000000000000000000000000600052603260045260246000fd5b906000526020600020906007020160050154836131a790919063ffffffff16565b600360003373ffffffffffffffffffffffffffffffffffffffff1673ffffffffffffffffffffffffffffffffffffffff16815260200190815260200160002060007f444149000000000000000000000000000000000000000000000000000000000081526020019081526020016000205461317b90919063ffffffff16565b600360003373ffffffffffffffffffffffffffffffffffffffff1673ffffffffffffffffffffffffffffffffffffffff16815260200190815260200160002060007f444149000000000000000000000000000000000000000000000000000000000081526020019081526020016000208190555061165b611572868681548110611551577f4e487b7100000000000000000000000000000000000000000000000000000000600052603260045260246000fd5b906000526020600020906007020160050154836131a790919063ffffffff16565b600360008888815481106115af577f4e487b7100000000000000000000000000000000000000000000000000000000600052603260045260246000fd5b906000526020600020906007020160010160009054906101000a900473ffffffffffffffffffffffffffffffffffffffff1673ffffffffffffffffffffffffffffffffffffffff1673ffffffffffffffffffffffffffffffffffffffff16815260200190815260200160002060007f444149000000000000000000000000000000000000000000000000000000000081526020019081526020016000205461319190919063ffffffff16565b60036000878781548110611698577f4e487b7100000000000000000000000000000000000000000000000000000000600052603260045260246000fd5b906000526020600020906007020160010160009054906101000a900473ffffffffffffffffffffffffffffffffffffffff1673ffffffffffffffffffffffffffffffffffffffff1673ffffffffffffffffffffffffffffffffffffffff16815260200190815260200160002060007f4441490000000000000000000000000000000000000000000000000000000000815260200190815260200160002081905550611806816003600088888154811061177a577f4e487b7100000000000000000000000000000000000000000000000000000000600052603260045260246000fd5b906000526020600020906007020160010160009054906101000a900473ffffffffffffffffffffffffffffffffffffffff1673ffffffffffffffffffffffffffffffffffffffff1673ffffffffffffffffffffffffffffffffffffffff16815260200190815260200160002060008d81526020019081526020016000205461317b90919063ffffffff16565b60036000878781548110611843577f4e487b7100000000000000000000000000000000000000000000000000000000600052603260045260246000fd5b906000526020600020906007020160010160009054906101000a900473ffffffffffffffffffffffffffffffffffffffff1673ffffffffffffffffffffffffffffffffffffffff1673ffffffffffffffffffffffffffffffffffffffff16815260200190815260200160002060008c8152602001908152602001600020819055505b6118db600160065461319190919063ffffffff16565b6006819055506118f560018561319190919063ffffffff16565b935050506108b8565b600091505b8280549050821080156119a9575082828154811061194a577f4e487b7100000000000000000000000000000000000000000000000000000000600052603260045260246000fd5b906000526020600020906007020160030154838381548110611995577f4e487b7100000000000000000000000000000000000000000000000000000000600052603260045260246000fd5b906000526020600020906007020160040154145b15611c585760008290505b600184805490506119c59190613c85565b811015611b8257836001826119da9190613bd5565b81548110611a11577f4e487b7100000000000000000000000000000000000000000000000000000000600052603260045260246000fd5b9060005260206000209060070201848281548110611a58577f4e487b7100000000000000000000000000000000000000000000000000000000600052603260045260246000fd5b9060005260206000209060070201600082015481600001556001820160009054906101000a900473ffffffffffffffffffffffffffffffffffffffff168160010160006101000a81548173ffffffffffffffffffffffffffffffffffffffff021916908373ffffffffffffffffffffffffffffffffffffffff1602179055506001820160149054906101000a900460ff168160010160146101000a81548160ff02191690836001811115611b35577f4e487b7100000000000000000000000000000000000000000000000000000000600052602160045260246000fd5b021790555060028201548160020155600382015481600301556004820154816004015560058201548160050155600682015481600601559050508080611b7a90613d30565b9150506119b4565b5082805480611bba577f4e487b7100000000000000000000000000000000000000000000000000000000600052603160045260246000fd5b60019003818190600052602060002090600702016000808201600090556001820160006101000a81549073ffffffffffffffffffffffffffffffffffffffff02191690556001820160146101000a81549060ff02191690556002820160009055600382016000905560048201600090556005820160009055600682016000905550509055611c5260018361319190919063ffffffff16565b50611903565b5050505050505050565b60065481565b60006020528060005260406000206000915090508060000154908060010154908060020160009054906101000a900473ffffffffffffffffffffffffffffffffffffffff16905083565b600260009054906101000a900473ffffffffffffffffffffffffffffffffffffffff1673ffffffffffffffffffffffffffffffffffffffff163373ffffffffffffffffffffffffffffffffffffffff1614611d42576040517f08c379a0000000000000000000000000000000000000000000000000000000008152600401611d39906139cf565b60405180910390fd5b604051806060016040528060075481526020018381526020018273ffffffffffffffffffffffffffffffffffffffff16815250600080848152602001908152602001600020600082015181600001556020820151816001015560408201518160020160006101000a81548173ffffffffffffffffffffffffffffffffffffffff021916908373ffffffffffffffffffffffffffffffffffffffff160217905550905050600182908060018154018082558091505060019003906000526020600020016000909190919091505560076000815480929190611e2190613d30565b91905055505050565b60018181548110611e3a57600080fd5b906000526020600020016000915090505481565b80600073ffffffffffffffffffffffffffffffffffffffff1660008083815260200190815260200160002060020160009054906101000a900473ffffffffffffffffffffffffffffffffffffffff1673ffffffffffffffffffffffffffffffffffffffff161415611ef4576040517f08c379a0000000000000000000000000000000000000000000000000000000008152600401611eeb90613a0f565b60405180910390fd5b82600360003373ffffffffffffffffffffffffffffffffffffffff1673ffffffffffffffffffffffffffffffffffffffff1681526020019081526020016000206000848152602001908152602001600020541015611f87576040517f08c379a0000000000000000000000000000000000000000000000000000000008152600401611f7e9061396f565b60405180910390fd5b611fea83600360003373ffffffffffffffffffffffffffffffffffffffff1673ffffffffffffffffffffffffffffffffffffffff16815260200190815260200160002060008581526020019081526020016000205461317b90919063ffffffff16565b600360003373ffffffffffffffffffffffffffffffffffffffff1673ffffffffffffffffffffffffffffffffffffffff16815260200190815260200160002060008481526020019081526020016000208190555060008083815260200190815260200160002060020160009054906101000a900473ffffffffffffffffffffffffffffffffffffffff1673ffffffffffffffffffffffffffffffffffffffff1663a9059cbb33856040518363ffffffff1660e01b81526004016120ae9291906138e7565b602060405180830381600087803b1580156120c857600080fd5b505af11580156120dc573d6000803e3d6000fd5b505050506040513d601f19601f82011682018060405250810190612100919061329c565b50505050565b6060600060018054905067ffffffffffffffff81111561214f577f4e487b7100000000000000000000000000000000000000000000000000000000600052604160045260246000fd5b60405190808252806020026020018201604052801561218857816020015b6121756131bd565b81526020019060019003908161216d5790505b50905060005b60018054905081101561234e576040518060600160405280600080600185815481106121e3577f4e487b7100000000000000000000000000000000000000000000000000000000600052603260045260246000fd5b9060005260206000200154815260200190815260200160002060000154815260200160008060018581548110612242577f4e487b7100000000000000000000000000000000000000000000000000000000600052603260045260246000fd5b90600052602060002001548152602001908152602001600020600101548152602001600080600185815481106122a1577f4e487b7100000000000000000000000000000000000000000000000000000000600052603260045260246000fd5b9060005260206000200154815260200190815260200160002060020160009054906101000a900473ffffffffffffffffffffffffffffffffffffffff1673ffffffffffffffffffffffffffffffffffffffff16815250828281518110612330577f4e487b7100000000000000000000000000000000000000000000000000000000600052603260045260246000fd5b6020026020010181905250808061234690613d30565b91505061218e565b508091505090565b80600073ffffffffffffffffffffffffffffffffffffffff1660008083815260200190815260200160002060020160009054906101000a900473ffffffffffffffffffffffffffffffffffffffff1673ffffffffffffffffffffffffffffffffffffffff1614156123fc576040517f08c379a00000000000000000000000000000000000000000000000000000000081526004016123f390613a0f565b60405180910390fd5b60008083815260200190815260200160002060020160009054906101000a900473ffffffffffffffffffffffffffffffffffffffff1673ffffffffffffffffffffffffffffffffffffffff166323b872dd3330866040518463ffffffff1660e01b815260040161246e939291906138b0565b602060405180830381600087803b15801561248857600080fd5b505af115801561249c573d6000803e3d6000fd5b505050506040513d601f19601f820116820180604052508101906124c0919061329c565b5061252483600360003373ffffffffffffffffffffffffffffffffffffffff1673ffffffffffffffffffffffffffffffffffffffff16815260200190815260200160002060008581526020019081526020016000205461319190919063ffffffff16565b600360003373ffffffffffffffffffffffffffffffffffffffff1673ffffffffffffffffffffffffffffffffffffffff168152602001908152602001600020600084815260200190815260200160002081905550505050565b83600073ffffffffffffffffffffffffffffffffffffffff1660008083815260200190815260200160002060020160009054906101000a900473ffffffffffffffffffffffffffffffffffffffff1673ffffffffffffffffffffffffffffffffffffffff161415612623576040517f08c379a000000000000000000000000000000000000000000000000000000000815260040161261a90613a0f565b60405180910390fd5b847f4441490000000000000000000000000000000000000000000000000000000000811415612687576040517f08c379a000000000000000000000000000000000000000000000000000000000815260040161267e9061398f565b60405180910390fd5b6001808111156126c0577f4e487b7100000000000000000000000000000000000000000000000000000000600052602160045260246000fd5b8360018111156126f9577f4e487b7100000000000000000000000000000000000000000000000000000000600052602160045260246000fd5b14156127975784600360003373ffffffffffffffffffffffffffffffffffffffff1673ffffffffffffffffffffffffffffffffffffffff1681526020019081526020016000206000888152602001908152602001600020541015612792576040517f08c379a0000000000000000000000000000000000000000000000000000000008152600401612789906139ef565b60405180910390fd5b61285d565b6127aa84866131a790919063ffffffff16565b600360003373ffffffffffffffffffffffffffffffffffffffff1673ffffffffffffffffffffffffffffffffffffffff16815260200190815260200160002060007f4441490000000000000000000000000000000000000000000000000000000000815260200190815260200160002054101561285c576040517f08c379a0000000000000000000000000000000000000000000000000000000008152600401612853906139af565b60405180910390fd5b5b60006004600088815260200190815260200160002060008560018111156128ad577f4e487b7100000000000000000000000000000000000000000000000000000000600052602160045260246000fd5b815260200190815260200160002090508060405180610100016040528060055481526020013373ffffffffffffffffffffffffffffffffffffffff168152602001866001811115612927577f4e487b7100000000000000000000000000000000000000000000000000000000600052602160045260246000fd5b8152602001898152602001888152602001600081526020018781526020014281525090806001815401808255809150506001900390600052602060002090600702016000909190919091506000820151816000015560208201518160010160006101000a81548173ffffffffffffffffffffffffffffffffffffffff021916908373ffffffffffffffffffffffffffffffffffffffff16021790555060408201518160010160146101000a81548160ff02191690836001811115612a14577f4e487b7100000000000000000000000000000000000000000000000000000000600052602160045260246000fd5b0217905550606082015181600201556080820151816003015560a0820151816004015560c0820151816005015560e082015181600601555050600080828054905011612a61576000612a73565b60018280549050612a729190613c85565b5b90505b600081111561312f5760006001811115612ab9577f4e487b7100000000000000000000000000000000000000000000000000000000600052602160045260246000fd5b856001811115612af2577f4e487b7100000000000000000000000000000000000000000000000000000000600052602160045260246000fd5b148015612b9e5750818181548110612b33577f4e487b7100000000000000000000000000000000000000000000000000000000600052603260045260246000fd5b90600052602060002090600702016005015482600183612b539190613c85565b81548110612b8a577f4e487b7100000000000000000000000000000000000000000000000000000000600052603260045260246000fd5b906000526020600020906007020160050154115b15612ba85761312f565b600180811115612be1577f4e487b7100000000000000000000000000000000000000000000000000000000600052602160045260246000fd5b856001811115612c1a577f4e487b7100000000000000000000000000000000000000000000000000000000600052602160045260246000fd5b148015612cc65750818181548110612c5b577f4e487b7100000000000000000000000000000000000000000000000000000000600052603260045260246000fd5b90600052602060002090600702016005015482600183612c7b9190613c85565b81548110612cb2577f4e487b7100000000000000000000000000000000000000000000000000000000600052603260045260246000fd5b906000526020600020906007020160050154105b15612cd05761312f565b600082600183612ce09190613c85565b81548110612d17577f4e487b7100000000000000000000000000000000000000000000000000000000600052603260045260246000fd5b906000526020600020906007020160405180610100016040529081600082015481526020016001820160009054906101000a900473ffffffffffffffffffffffffffffffffffffffff1673ffffffffffffffffffffffffffffffffffffffff1673ffffffffffffffffffffffffffffffffffffffff1681526020016001820160149054906101000a900460ff166001811115612ddc577f4e487b7100000000000000000000000000000000000000000000000000000000600052602160045260246000fd5b6001811115612e14577f4e487b7100000000000000000000000000000000000000000000000000000000600052602160045260246000fd5b8152602001600282015481526020016003820154815260200160048201548152602001600582015481526020016006820154815250509050828281548110612e85577f4e487b7100000000000000000000000000000000000000000000000000000000600052603260045260246000fd5b906000526020600020906007020183600184612ea19190613c85565b81548110612ed8577f4e487b7100000000000000000000000000000000000000000000000000000000600052603260045260246000fd5b9060005260206000209060070201600082015481600001556001820160009054906101000a900473ffffffffffffffffffffffffffffffffffffffff168160010160006101000a81548173ffffffffffffffffffffffffffffffffffffffff021916908373ffffffffffffffffffffffffffffffffffffffff1602179055506001820160149054906101000a900460ff168160010160146101000a81548160ff02191690836001811115612fb5577f4e487b7100000000000000000000000000000000000000000000000000000000600052602160045260246000fd5b0217905550600282015481600201556003820154816003015560048201548160040155600582015481600501556006820154816006015590505080838381548110613029577f4e487b7100000000000000000000000000000000000000000000000000000000600052603260045260246000fd5b90600052602060002090600702016000820151816000015560208201518160010160006101000a81548173ffffffffffffffffffffffffffffffffffffffff021916908373ffffffffffffffffffffffffffffffffffffffff16021790555060408201518160010160146101000a81548160ff021916908360018111156130d9577f4e487b7100000000000000000000000000000000000000000000000000000000600052602160045260246000fd5b0217905550606082015181600201556080820151816003015560a0820151816004015560c0820151816005015560e0820151816006015590505061312760018361317b90919063ffffffff16565b915050612a76565b613145600160055461319190919063ffffffff16565b6005819055505050505050505050565b600260009054906101000a900473ffffffffffffffffffffffffffffffffffffffff1681565b600081836131899190613c85565b905092915050565b6000818361319f9190613bd5565b905092915050565b600081836131b59190613c2b565b905092915050565b60405180606001604052806000815260200160008019168152602001600073ffffffffffffffffffffffffffffffffffffffff1681525090565b60008135905061320681613deb565b92915050565b60008151905061321b81613e02565b92915050565b60008135905061323081613e19565b92915050565b60008135905061324581613e30565b92915050565b60008135905061325a81613e40565b92915050565b6000806040838503121561327357600080fd5b6000613281858286016131f7565b925050602061329285828601613221565b9150509250929050565b6000602082840312156132ae57600080fd5b60006132bc8482850161320c565b91505092915050565b6000602082840312156132d757600080fd5b60006132e584828501613221565b91505092915050565b6000806040838503121561330157600080fd5b600061330f85828601613221565b9250506020613320858286016131f7565b9150509250929050565b6000806040838503121561333d57600080fd5b600061334b85828601613221565b925050602061335c85828601613236565b9150509250929050565b60008060006060848603121561337b57600080fd5b600061338986828701613221565b935050602061339a8682870161324b565b92505060406133ab86828701613236565b9150509250925092565b6000806000606084860312156133ca57600080fd5b60006133d886828701613221565b93505060206133e98682870161324b565b92505060406133fa8682870161324b565b9150509250925092565b6000806000806080858703121561341a57600080fd5b600061342887828801613221565b94505060206134398782880161324b565b935050604061344a8782880161324b565b925050606061345b87828801613236565b91505092959194509250565b60006020828403121561347957600080fd5b60006134878482850161324b565b91505092915050565b600080604083850312156134a357600080fd5b60006134b18582860161324b565b92505060206134c285828601613221565b9150509250929050565b60006134d88383613793565b6101008301905092915050565b60006134f18383613835565b60608301905092915050565b61350681613cb9565b82525050565b61351581613cb9565b82525050565b600061352682613b72565b6135308185613ba2565b935061353b83613b52565b8060005b8381101561356c57815161355388826134cc565b975061355e83613b88565b92505060018101905061353f565b5085935050505092915050565b600061358482613b7d565b61358e8185613bb3565b935061359983613b62565b8060005b838110156135ca5781516135b188826134e5565b97506135bc83613b95565b92505060018101905061359d565b5085935050505092915050565b6135e081613cd7565b82525050565b6135ef81613cd7565b82525050565b6135fe81613d1e565b82525050565b61360d81613d1e565b82525050565b6000613620600f83613bc4565b91507f62616c616e636520746f6f206c6f7700000000000000000000000000000000006000830152602082019050919050565b6000613660601683613bc4565b91507f63616e6e6f7420627579206f722073656c6c20444149000000000000000000006000830152602082019050919050565b60006136a0601383613bc4565b91507f4441492062616c616e636520746f6f206c6f77000000000000000000000000006000830152602082019050919050565b60006136e0601283613bc4565b91507f6f6e6c792061646d696e20616c6c6f77656400000000000000000000000000006000830152602082019050919050565b6000613720601583613bc4565b91507f746f6b656e2062616c616e636520746f6f206c6f7700000000000000000000006000830152602082019050919050565b6000613760601983613bc4565b91507f7468697320746f6b656e20646f6573206e6f74206578697374000000000000006000830152602082019050919050565b610100820160008201516137aa6000850182613877565b5060208201516137bd60208501826134fd565b5060408201516137d060408501826135f5565b5060608201516137e360608501826135d7565b5060808201516137f66080850182613877565b5060a082015161380960a0850182613877565b5060c082015161381c60c0850182613877565b5060e082015161382f60e0850182613877565b50505050565b60608201600082015161384b6000850182613877565b50602082015161385e60208501826135d7565b50604082015161387160408501826134fd565b50505050565b61388081613d14565b82525050565b61388f81613d14565b82525050565b60006020820190506138aa600083018461350c565b92915050565b60006060820190506138c5600083018661350c565b6138d2602083018561350c565b6138df6040830184613886565b949350505050565b60006040820190506138fc600083018561350c565b6139096020830184613886565b9392505050565b6000602082019050818103600083015261392a818461351b565b905092915050565b6000602082019050818103600083015261394c8184613579565b905092915050565b600060208201905061396960008301846135e6565b92915050565b6000602082019050818103600083015261398881613613565b9050919050565b600060208201905081810360008301526139a881613653565b9050919050565b600060208201905081810360008301526139c881613693565b9050919050565b600060208201905081810360008301526139e8816136d3565b9050919050565b60006020820190508181036000830152613a0881613713565b9050919050565b60006020820190508181036000830152613a2881613753565b9050919050565b6000602082019050613a446000830184613886565b92915050565b600061010082019050613a60600083018b613886565b613a6d602083018a61350c565b613a7a6040830189613604565b613a8760608301886135e6565b613a946080830187613886565b613aa160a0830186613886565b613aae60c0830185613886565b613abb60e0830184613886565b9998505050505050505050565b6000606082019050613add6000830186613886565b613aea60208301856135e6565b613af7604083018461350c565b949350505050565b600060a082019050613b146000830188613886565b613b216020830187613886565b613b2e6040830186613886565b613b3b6060830185613886565b613b486080830184613886565b9695505050505050565b6000819050602082019050919050565b6000819050602082019050919050565b600081519050919050565b600081519050919050565b6000602082019050919050565b6000602082019050919050565b600082825260208201905092915050565b600082825260208201905092915050565b600082825260208201905092915050565b6000613be082613d14565b9150613beb83613d14565b9250827fffffffffffffffffffffffffffffffffffffffffffffffffffffffffffffffff03821115613c2057613c1f613d79565b5b828201905092915050565b6000613c3682613d14565b9150613c4183613d14565b9250817fffffffffffffffffffffffffffffffffffffffffffffffffffffffffffffffff0483118215151615613c7a57613c79613d79565b5b828202905092915050565b6000613c9082613d14565b9150613c9b83613d14565b925082821015613cae57613cad613d79565b5b828203905092915050565b6000613cc482613cf4565b9050919050565b60008115159050919050565b6000819050919050565b6000819050613cef82613dd7565b919050565b600073ffffffffffffffffffffffffffffffffffffffff82169050919050565b6000819050919050565b6000613d2982613ce1565b9050919050565b6000613d3b82613d14565b91507fffffffffffffffffffffffffffffffffffffffffffffffffffffffffffffffff821415613d6e57613d6d613d79565b5b600182019050919050565b7f4e487b7100000000000000000000000000000000000000000000000000000000600052601160045260246000fd5b7f4e487b7100000000000000000000000000000000000000000000000000000000600052602160045260246000fd5b60028110613de857613de7613da8565b5b50565b613df481613cb9565b8114613dff57600080fd5b50565b613e0b81613ccb565b8114613e1657600080fd5b50565b613e2281613cd7565b8114613e2d57600080fd5b50565b60028110613e3d57600080fd5b50565b613e4981613d14565b8114613e5457600080fd5b5056fea2646970667358221220f5a75637f78b81617285945405cee4dab15c51a1818319c41ef6b63f4bf011fc64736f6c63430008000033",
  "immutableReferences": {},
  "source": "pragma solidity ^0.8.0;\r\nimport './IERC20.sol';\r\nimport './SafeMath.sol';\r\n//SPDX-License-Identifier: UNLICENSED\r\ncontract Dex{\r\n  using SafeMath for uint;// add, sub, mul uses the safeMath contract\r\n  struct Token{\r\n    uint id;\r\n    bytes32 ticker;\r\n    address tokenAddress;\r\n  }\r\n  enum Side{ \r\n    BUY,\r\n    SELL\r\n  }\r\n  struct Order{\r\n    uint id;\r\n    address trader;\r\n    Side side;\r\n    bytes32 ticker;\r\n    uint amount;\r\n    uint filled;\r\n    uint price;\r\n    uint date;\r\n  }\r\n  mapping(bytes32 => Token) public tokens;\r\n  bytes32 [] public tokenList;\r\n  address public admin;\r\n  mapping (address => mapping(bytes32=>uint)) public traderBalances;\r\n  mapping(bytes32=> mapping(uint =>Order[]))public orderBook;//enum will be casted into uint ie buy=0 sell=1\r\n  uint public nextOrderId;\r\n  uint public nextTradeId;\r\n  uint public nextTokenId;\r\n  bytes32 constant DAI = bytes32('DAI');\r\n  event newTrade(\r\n    uint tradeId,\r\n    uint orderId,\r\n    bytes32 indexed ticker,\r\n    address indexed trader1,\r\n    address indexed trader2,\r\n    uint amount,\r\n    uint price,\r\n    uint date\r\n  );\r\n  constructor () {\r\n    admin= msg.sender;\r\n  }\r\n  function getOrders(\r\n    bytes32 ticker, \r\n    Side side\r\n    ) \r\n    external \r\n    view\r\n    returns(Order[] memory) {\r\n    return orderBook[ticker][uint(side)];\r\n  }\r\n   function getTokens() external view returns(Token[] memory) {\r\n      Token[] memory _tokens = new Token[](tokenList.length);\r\n      for (uint i = 0; i < tokenList.length; i++) {\r\n        _tokens[i] = Token(tokens[tokenList[i]].id,tokens[tokenList[i]].ticker, tokens[tokenList[i]].tokenAddress);\r\n        //  tokens[tokenList[i]].id,\r\n        //   tokens[tokenList[i]].symbol,\r\n        //   tokens[tokenList[i]].at\r\n      }\r\n      return _tokens;\r\n    }\r\n  function addToken( \r\n    bytes32 ticker,\r\n    address tokenAddress\r\n  ) onlyAdmin external{\r\n    tokens[ticker]= Token(nextTokenId,ticker, tokenAddress);\r\n    tokenList.push(ticker);\r\n    nextTokenId++;\r\n  }\r\n  function deposit(\r\n    uint amount,\r\n    bytes32 ticker\r\n  )  tokenExist(ticker) external{\r\n    IERC20(tokens[ticker].tokenAddress).transferFrom(msg.sender, address(this), amount);\r\n    traderBalances[msg.sender][ticker] =traderBalances[msg.sender][ticker].add(amount);\r\n  }\r\n  function withdraw(\r\n    uint amount,\r\n    bytes32 ticker\r\n  ) tokenExist(ticker) external{\r\n    require(traderBalances[msg.sender][ticker] >= amount, \"balance too low\");\r\n    traderBalances[msg.sender][ticker] =traderBalances[msg.sender][ticker].sub(amount);\r\n    IERC20(tokens[ticker].tokenAddress).transfer(msg.sender, amount);\r\n\r\n  }\r\n  function createLimitOrder(\r\n    bytes32 ticker,\r\n    uint amount,\r\n    uint price,\r\n    Side side\r\n  ) tokenExist(ticker) tokenIsNotDai(ticker) external {\r\n    if (side == Side.SELL){\r\n      require(traderBalances[msg.sender][ticker] >= amount,\"token balance too low\");\r\n    }else{\r\n      require(traderBalances[msg.sender][DAI] >= amount.mul(price) , \"DAI balance too low\");\r\n    }\r\n    Order [] storage orders = orderBook[ticker][uint(side)];\r\n    orders.push(\r\n      Order(\r\n        nextOrderId,\r\n        msg.sender,\r\n        side,\r\n        ticker,\r\n        amount,\r\n        0,\r\n        price,\r\n        block.timestamp\r\n      )\r\n    );\r\n    //bubble sort algorithm to sort orders buy(descending), sell(ascending)\r\n    uint i = orders.length > 0 ? orders.length - 1 : 0;\r\n    while(i > 0){\r\n      if(side == Side.BUY && orders[i-1].price > orders[i].price){\r\n        //stopping condition\r\n        break;\r\n      }\r\n      if(side == Side.SELL && orders[i-1].price < orders[i].price){\r\n        //stopping condition\r\n        break;\r\n      }\r\n      Order memory order = orders[i-1];\r\n      orders[i-1] =orders[i];\r\n      orders[i] = order;\r\n      i=i.sub(1);\r\n    }\r\n    nextOrderId= nextOrderId.add(1);\r\n  }\r\n  function createMarketOrder(\r\n    bytes32 ticker,\r\n    uint amount,\r\n    Side side\r\n  )tokenExist(ticker) \r\n  tokenIsNotDai(ticker) \r\n  external {\r\n   if (side == Side.SELL){\r\n      require(traderBalances[msg.sender][ticker] >= amount,\"token balance too low\");\r\n    }\r\n    Order [] storage orders =orderBook[ticker][uint(side == Side.BUY ? Side.SELL : Side.BUY)];\r\n    uint i;\r\n    uint remaining = amount;\r\n    while(i < orders.length && remaining >0 ){\r\n      uint available = orders[i].amount.sub(orders[i].filled);\r\n      uint matched = (remaining > available) ? available : remaining;\r\n      remaining = remaining.sub(matched);\r\n      orders[i].filled =orders[i].filled.add(matched);\r\n      emit  newTrade(nextTradeId, orders[i].id, ticker, orders[i].trader, msg.sender, matched, orders[i].price, block.timestamp);\r\n       if(side == Side.SELL){\r\n      traderBalances[msg.sender][ticker]= traderBalances[msg.sender][ticker].sub(matched);\r\n      traderBalances[msg.sender][DAI]= traderBalances[msg.sender][DAI].add(matched.mul(orders[i].price));\r\n      traderBalances[orders[i].trader][DAI]= traderBalances[orders[i].trader][DAI].sub(matched.mul(orders[i].price));\r\n      traderBalances[orders[i].trader][ticker]= traderBalances[msg.sender][ticker].add(matched);\r\n      }\r\n      if(side == Side.BUY){\r\n        require(traderBalances[msg.sender][DAI]>= matched * orders[i].price, \"DAI balance too low\");\r\n        traderBalances[msg.sender][ticker]= traderBalances[msg.sender][ticker].add(matched);\r\n        traderBalances[msg.sender][DAI]= traderBalances[msg.sender][DAI].sub(matched.mul(orders[i].price));\r\n        traderBalances[orders[i].trader][DAI]= traderBalances[orders[i].trader][DAI].add(matched.mul(orders[i].price));\r\n        traderBalances[orders[i].trader][ticker]= traderBalances[orders[i].trader][ticker].sub(matched);\r\n      }\r\n      nextTradeId=nextTradeId.add(1);\r\n      i=i.add(1);\r\n    }\r\n    //while loop to remove all matched orders from order book.\r\n    i=0;\r\n    while(i < orders.length && orders[i].filled == orders[i].amount){\r\n      //the orders at the beginning of the orders array get filled first\r\n      // if any orders will be empty, it will be those at the beginning because orders at the beginning get filled first\r\n      //this algorithm checks order at postion 0, if it is filled, it swaps postion 1 into zero, on and on till the last element\r\n      for(uint j =i; j< orders.length -1; j++){\r\n        orders[j]= orders[j+1];\r\n      }\r\n      orders.pop();\r\n      i.add(1);\r\n    }\r\n   \r\n  } \r\n  modifier onlyAdmin(){\r\n    require(msg.sender == admin, \"only admin allowed\");\r\n    _;\r\n  }\r\n  modifier tokenExist(bytes32 ticker){\r\n    require(tokens[ticker].tokenAddress != address(0), \"this token does not exist\");\r\n    _;\r\n  }\r\n  modifier tokenIsNotDai(bytes32 ticker){\r\n  require(ticker != DAI, \"cannot buy or sell DAI\");\r\n  _;\r\n}\r\n//end of contract\r\n}\r\n",
  "sourcePath": "C:/Users/User/Desktop/project/dex-exchange/smart-contracts/contracts/Dex.sol",
  "compiler": {
    "name": "solc",
    "version": "0.8.0+commit.c7dfd78e.Emscripten.clang"
  },
  "schemaVersion": "3.4.1",
  "updatedAt": "2021-06-08T09:59:13.813Z",
  "networkType": "ethereum",
  "devdoc": {
    "kind": "dev",
    "methods": {},
    "version": 1
  },
  "userdoc": {
    "kind": "user",
    "methods": {},
    "version": 1
  }
}